:020000040800F2
:10000000289400206501000861AC000863AC00087A
:1000100067AC00086BAC00086FAC00080000000083
:1000200000000000000000000000000073AC0008A9
:1000300075AC00080000000027BC000895270008E8
:100040007F0100087F0100087F0100087F01000890
:100050007F0100087F0100087F0100087F01000880
:100060007F0100087F0100087F0100087F01000870
:100070007F0100087F0100087F0100087F01000860
:100080007F0100087F0100087F0100087F01000850
:100090007F0100087F0100087F0100087F01000840
:1000A0007F0100087F0100087F0100087F01000830
:1000B0007BAC00087F0100087F0100087F01000879
:1000C0007F0100087F0100087F0100087F01000810
:1000D0007F0100087DAC00087FAC000881AC0008FF
:1000E0007F0100087F0100087F0100080000000078
:1000F0000000000000000000000000000000000000
:1001000000000000000000007F0100087F010008DF
:1001100083AC00087F0100087F0100087F01000810
:100120007F0100087F0100087F0100087F010008AF
:100130007F0100087F0100087F0100087F0100089F
:100140007F0100087F0100087F0100087F0100088F
:10015000DFF80CD00BF026FD0048004747AD000843
:10016000289400200648804706480047FEE7FEE73F
:10017000FEE7FEE7FEE7FEE7FEE7FEE7FEE7FEE757
:1001800099020008510100080CB500200190009070
:100190009248006840F480309049086000BF8F4862
:1001A000006800F4003000900198401C0190009815
:1001B00018B90198B0F5A06FF1D18848006800F433
:1001C000003010B10120009001E000200090009864
:1001D00001285CD18248006840F010008049086026
:1001E0000846006820F0030008600846006840F0F8
:1001F00002000860794840687849486008464068CD
:1002000048600846406840F4806048600846C06A1C
:10021000744908407149C8620846C06A7249084377
:100220006E49C8620846006840F08060086000BF00
:100230006A48006800F000600028F9D0674840680C
:1002400020F47C10654948600846406840F4E81096
:1002500048600846006840F08070086000BF5F4852
:10026000006800F000700028F9D05C48406820F079
:1002700003005A4948600846406840F00200486060
:1002800000BF5648406800F00C000828F9D10CBDAA
:1002900010B5FFF779FF10BD10B55048006840F069
:1002A00001004E49086008464068504908404B49E3
:1002B0004860084600684E490840484908600846BA
:1002C000006820F4802008600846406820F4FE00A2
:1002D00048600846006820F0A05008604FF47F0096
:1002E00088600020C862FFF7D3FF4FF000604149EB
:1002F000086010BDF0B5002100200023002400227A
:1003000000250026354F7F6807F00C0121B1042934
:1003100008D008294BD10BE0374FDFF8E0C0CCF80C
:1003200000704AE0364FDFF8D4C0CCF8007044E0EB
:100330002A4F7F6807F47010284F7F6807F48033D6
:10034000800C0D2801D0801C00E0062033B92D4F11
:100350004743DFF8A8C0CCF8007027E01F4FFF6AC2
:1003600007F480341D4FFF6A07F00F077A1C44B969
:10037000234FB7FBF2F74743DFF880C0CCF800709B
:1003800014E0164FFF6AC7F303177D1C134FFF6A73
:10039000C7F30327BE1C1A4FB7FBF5F77743B7FB2C
:1003A000F2F74743DFF854C0CCF8007005E0124F75
:1003B000DFF848C0CCF8007000BF00BF074F7F686F
:1003C000C7F30317DFF840C01CF807100B4F3F6856
:1003D000CF40DFF828C0CCF80070F0BD001002401C
:1003E0000020024000F0FEFF440601000000FFF084
:1003F000FFFFF6FE08ED00E000127A00000000208A
:10040000001BB70000093D000400002010B5FC48A7
:100410000088401EFA49088008460088A0B90AF002
:10042000EBFBF849086008460068F7490968441A78
:10043000F6480068A04201D2F4480460F44800681D
:10044000A04201D2F248046010BD10B5F148008806
:10045000401CF0490880EA48008818B90AF0CCFB33
:10046000E9490860E6480088401CE549088010BD5D
:1004700010B5002400BF00BF00F0ECF9044600BF37
:10048000FFF7E3FF00BF1021E34800F071FB00BF5E
:10049000FFF7BCFF00BF204600F0E0F900BF00BF3F
:1004A00010BD10B5FFF7E4FF10BD70B500260020A9
:1004B000D8490880D2490880D3490860D1490860EA
:1004C000D2490860D2490860D4490860002400BFBE
:1004D00000F0C0F9064600BF00250BE00020CB4924
:1004E0000860FFF7B2FFFFF791FFC84800680444B7
:1004F000681C85B2002DF1D0C84804600020C349B3
:100500000860C349086000BF304600F0A7F900BF8B
:1005100070BD10B50020C24908600AF055FB10BD3F
:1005200010B5FFF7F6FFFFF7C0FFFFF7BAFF10BDEA
:1005300000BFFEE770B505460C46002614B900BFA3
:10054000FFF7F6FF15B90A20208070BD00BF00BF7D
:1005500000F080F9064600BFFFF777FF00BF1022CA
:10056000AD49284601F096FA00BFFFF74FFF00BFE4
:10057000304600F073F900BF00BF0020208000BFAC
:10058000E3E72DE9F04105460C46002714B900BF0A
:10059000FFF7CEFF1DB90A202080BDE8F0811021B1
:1005A000284601F05FFA0646102E19D200BF00BFA0
:1005B00000F050F9074600BFFFF747FF00BF1022C9
:1005C0002946954801F066FA00BFFFF71FFF00BFFC
:1005D000384600F043F900BF00BF0020208002E051
:1005E0004FF47A70208000BFD7E710B50AF004FB03
:1005F0000446204610BD704700B5014611B900BF42
:10060000FFF796FF864A106808B1002201E04FF418
:10061000FA620A8000BD82490860704701460846B8
:100620007E4A1268904203D97C4A1268801A00E020
:100630000020704770B5002500BF00F00BF905469B
:1006400000BF7248046800BF284600F007F900BFE9
:100650002046FFF7E3FF0646304670BD70B5002523
:10066000FFF7E8FF044600BF00F0F4F8054600BFBE
:1006700000206649086000BF284600F0EFF800BF80
:10068000204670BD70B5002500BF00F0E3F80546B8
:1006900000BF5F48046800BF284600F0DFF800BFD5
:1006A0002046FFF7BBFF0646304670BD70B50546D5
:1006B000284600F0DAF80446183C204670BD70B5B4
:1006C0000546284600F0D1F80446103C204670BD8F
:1006D00070B50546284600F0C8F8044600BF20461D
:1006E00070BD30B502460B464FF0FF350024AD1A01
:1006F0009C4127D24FF0FF352C0CAD1A9C410FD2F4
:100700004FF0FF352C0AAD1A9C4103D2190E454C0F
:10071000605C45E0190C434C645C04F108003FE068
:100720004FF0FF35FF24AD1A9C4105D2190A3D4C0C
:10073000645C04F1100033E019463A4C645C04F147
:1007400018002DE04FF6FF750024AD1A9C4115D21C
:100750006FF07F450024AD1A9C4107D2140E44EA85
:100760000321304C645C04F1200019E0140C44EACD
:1007700003412C4C645C04F1280011E0FF250024A7
:10078000AD1A9C4107D2140A44EA0361254C645C0B
:1007900004F1300004E01146224C645C04F138009E
:1007A00030BD70B504460CB9082070BD204600F07D
:1007B0005FF805462846F8E770B504460CB91020E6
:1007C00070BD204600F054F805462846F8E770B59D
:1007D00004460CB9202070BD204600F049F80546BB
:1007E0002846F8E72DE9F04304460D46002184EA47
:1007F00001006940084317D14020BDE8F0830000A4
:100800001A000020200000201C00002028000020EA
:100810002C000020180000203801002024000020B7
:1008200014000020A8BC0008E243E843521C40F139
:10083000000102EA040601EA050730463946FFF7DF
:1008400050FF8046C8F13F094846D6E772B6704768
:1008500062B67047EFF3108072B6704780F310886D
:10086000704730BF704720BF7047B0FA80F07047C4
:1008700090FAA0F0B0FA80F0704790FAA0F07047BC
:100880000146412903DB5A2901DC012200E0002254
:10089000012A08D0612903DB7A2901DC012200E06A
:1008A0000022012A01D1012200E0002210467047F7
:1008B0000146412903DB5A2901DC012200E0002224
:1008C000012A08D0612903DB7A2901DC012200E03A
:1008D0000022012A01D1012200E00022012A08D0D1
:1008E000302903DB392901DC012200E00022012A42
:1008F00001D1012200E00022104670470146612923
:1009000003DB7A2901DC012200E000221046704757
:100910000146412903DB5A2901DC012200E00022C3
:10092000104670470146302903DB392901DC0122DA
:1009300000E00022104670470146302903DB3729CA
:1009400001DC012200E000221046704701463029F8
:1009500001DB392907DD412901DB462903DD612956
:1009600003DB662901DC012200E00022104670470B
:100970000146202901D0092901D1012200E00022ED
:10098000104670470146202909D00D2907D00A29B1
:1009900005D00C2903D0092901D00B2901D101224E
:1009A00000E00022104670470146202903DB7E2923
:1009B00001DC012200E00022104670470146212997
:1009C00003DB7E2901DC012200E000221046704793
:1009D0000146202903DB7E2901DC012200E0002200
:1009E000012A35D1202909D00D2907D00A2905D09F
:1009F0000C2903D0092901D00B2901D1012200E0E3
:100A000000222ABB412903DB5A2901DC012200E034
:100A10000022012A08D0612903DB7A2901DC0122A6
:100A200000E00022012A01D1012200E00022012A77
:100A300008D0302903DB392901DC012200E0002243
:100A4000012A01D1012200E000220AB9012200E0BE
:100A500000221046704701464AB2002A01DB1F29D6
:100A600001DD7F2901D1012200E0002210467047FC
:100A70000146412903DB5A2901DC012200E0002262
:100A8000012A02D101F1200200E00A46D0B27047EB
:100A90000146612903DB7A2901DC012200E0002202
:100AA000012A02D1A1F1200200E00A46D0B270472B
:100AB000F0B504460B462046FFF7EAFF0546184608
:100AC000FFF7E6FF0646B54201D1012000E0002015
:100AD00007463846F0BD0000F748F8490160014676
:100AE000416000218160C160016141618161C1613A
:100AF00001620163C1624162F1498163C1634FF4E4
:100B0000D841016441640146EE4A116070472DE905
:100B1000F04103460C4617460FB9BDE8F08103B912
:100B2000FBE70025002202E02D022543521C042A87
:100B3000FAD3384603F0030C1946BCF1000F08D075
:100B4000624603E001F8014B401E521C08B1042A22
:100B5000F8D30E4601E020C6001F0428FBD2314620
:100B600002E001F8014B401E0028FAD100BFD4E793
:100B700030B505460C46224600212846FFF7C7FF40
:100B800030BD2DE9F04F85B0074688469146B9F152
:100B9000000F02D105B0BDE8F08F07B9FAE7B8F150
:100BA000000F00D1F6E746463D46AE4205D94A461B
:100BB0004146384601F0ECFBECE74C463819451E3F
:100BC00008EB0400461EA81B04900498042834D3A4
:100BD00005F00300029006F003010191DDE9011028
:100BE000884201D1012000E00020009000980128F7
:100BF00023D10298032810D0029840B2039008E055
:100C000016F8010905F80109641E0398401E40B258
:100C1000039014B103980028F2DAA5F1030AA6F1B3
:100C2000030B04E05BF804094AF80409241F042CB0
:100C3000F8D20AF103050BF1030604E016F80109E6
:100C400005F80109641E002CF8D100BFA2E72DE9C8
:100C5000F84F80468946154615B90120BDE8F88F42
:100C6000B8F1000F01D10020F8E7B9F1000F01D170
:100C70000020F3E70124294608EB050209EB0503F0
:100C800002F0030C03F0030BDC4501D1012000E06E
:100C9000002000900098012829D1BCF1000F12D04B
:100CA000E2460AE0521E5B1E107893F800E07045A1
:100CB00000D00024491EAAF1010A012C03D111B170
:100CC000BAF1000FEED1012C11D116461F4608E0F3
:100CD000361F3F1F3068D7F800E0704500D0002471
:100CE000091F012C01D10429F2D232463B4608E00B
:100CF000521E5B1E107893F800E0704500D000246F
:100D0000491E012C01D10029F2D12046A6E7F0B5F9
:100D100003460D461646DA6BB2FBF6F006FB102CC6
:100D2000BCF1000F02D0A6EB0C0400E00024611916
:100D3000586C884201D20020F0BDA14201D3A942E3
:100D400001D20020F8E75718974201D20020F3E7BC
:100D50002244DF63586C401A58641046ECE72DE9D2
:100D6000F04F81468C461C46B9FBF4F004FB109B07
:100D7000BBF1000F02D0A4EB0B0600E00026B2FB93
:100D8000F4F004FB102BBBF1000F02D0A4EB0B031B
:100D900000E00023D018ACF1010E00FB0E608718B4
:100DA00006EB0208B04501D3904502D20020BDE811
:100DB000F08FBCF1010F22D9D5189D4201D3954285
:100DC00001D20020F3E7ACF1010000FB05F1A942DC
:100DD00003D3994201D3914201D20020E7E701EB0E
:100DE000020A8A4501D3924501D20020DFE7474538
:100DF00003D38F4201D3574501D20020D7E73846AD
:100E0000D5E72DE9FE4F0746884615461C460020CB
:100E100000901CB900BFFFF78BFB00BF0DB901ADFF
:100E200000BF002028602FB942F27470208000209B
:100E3000BDE8FE8FB8F1000F04D142F2757020803A
:100E40000020F5E7DFF8709000BF00BFFFF702FD5C
:100E5000009000BFFFF7F9FA00BFD9F83C000290FC
:100E6000D9F844B043463A4601210298FFF777FF8C
:100E7000064676B900BFFFF7C9FA00BF0098FFF732
:100E8000EDFC00BF00BF2F6042F2E3702080002025
:100E9000CEE75E4518D900BFFFF7B8FA00BF00984B
:100EA000FFF7DCFC00BF00BFA6EB0B00286042F29E
:100EB000E27020800020BBE74801002048454150F7
:100EC0009001002030000020424639464846FFF796
:100ED0001EFF8246BAF1000F0ED100BFFFF796FA4F
:100EE00000BF0098FFF7BAFC00BF00BF2E6042F2BF
:100EF000E270208000209BE700BFFFF787FA00BF69
:100F00000098FFF7ABFC00BF00BF42F210702080DA
:100F100050468DE72DE9FC5F06460D46144600203D
:100F200000901CB900BFFFF703FB00BF2DB942F2D0
:100F3000757020800020BDE8FC9FB5F5805F04D966
:100F400042F2757020800020F5E726B942F2117058
:100F500020800020EFE700BF00BFFFF77BFC009080
:100F600000BFFFF772FA00BFFC493068084440B187
:100F7000FB49084418B1FB49084408B900BF0EE01A
:100F800000BF00BFFFF742FA00BF0098FFF766FC02
:100F900000BF00BF42F2887020800020CBE700BF76
:100FA000D6F80490D9F8380008B1484600E0EE4879
:100FB0008246DAF84470DAF83CB000BFFFF726FA50
:100FC00000BF0098FFF74AFC00BF00BF012D0DD9FC
:100FD000BBFBF5F005FB10B8B8F1000F02D0A5EB94
:100FE000080000E00020019001983F1A42F21070C2
:100FF000208038469FE770B504460D462A462146B4
:10100000D948FFF787FF0646304670BD70B50446E5
:101010000D461DB900BFFFF78BFA00BF1CB942F2A5
:101020001170288070BDCD48404220600020606073
:10103000A060E06020616061A061E0612062A06268
:1010400060632063E0626062A063E06320646064C8
:1010500042F21070288000BFE4E72DE9FF4F91B005
:101060000446DDE92095002000901DB900BFFFF780
:101070005FFA00BFB9F1000F02D10DF1100900BFF6
:101080000020C9F8000029462046FFF7BFFF288846
:1010900042F21071884202D015B0BDE8F08F12986C
:1010A00028B1139818B942F27E702880F4E714989A
:1010B00018B942F292702880EEE71E9818B942F2F1
:1010C00093702880E8E71F9818B942F2947028803E
:1010D000E2E7A648006818B942F2E7702880DBE72B
:1010E000A14810904FF0000A00BF00BFFFF7B2FB0D
:1010F000009000BFFFF7A9F900BF1298002863D144
:10110000109E109E0E96109E3746109EF06B0B9010
:1011100004231A4614990B98FFF721FE03900398B5
:1011200060B900BFFFF772F900BF0098FFF796FBA8
:1011300000BF00BF42F2E3702880ADE703990B982F
:1011400008440A90DDE91E2314990A98FFF707FE68
:101150008346BBF1000F0CD100BFFFF757F900BF6A
:101160000098FFF77BFB00BF00BF42F2E3702880CE
:1011700092E7039800EB0B0A0398824501D3DA4506
:101180000CD200BFFFF742F900BF0098FFF766FBE3
:1011900000BF00BF42F2E37028807DE71098D0F8CE
:1011A0004480C2457ED900BFFFF730F900BF0098E8
:1011B000FFF754FB00BF00BFAAEB0800C9F800000E
:1011C00042F2E270288067E712980990DDE9120187
:1011D0000844401E0890DDE9081081420CD200BF8F
:1011E000FFF714F900BF0098FFF738FB00BF00BFFE
:1011F00042F2977028804FE7002600200E905B484F
:1012000007683CE0B96B1298814205D1396C13989C
:10121000814201D13E4634E0B86B0790396CB86B1F
:101220000844401E0690DDE90701814200D228E013
:1012300007990998884203D8DDE9071088420FD240
:1012400007990998884203D306990898884207D9D4
:1012500006990998884210D80699089888420CD3B4
:1012600000BFFFF7D3F800BF0098FFF7F7FA00BF01
:1012700000BF42F27F7028800EE70E97FF68002FB4
:10128000C0D100BF46B926461298A0631298E06309
:1012900013982064139860641098C06B0B9004231B
:1012A0001A4600E064E014990B98FFF758FD03908C
:1012B000039860B900BFFFF7A9F800BF0098FFF7D7
:1012C000CDFA00BF00BF42F2E3702880E4E6109838
:1012D000D0F844800398404511D900BFFFF796F835
:1012E00000BF0098FFF7BAFA00BF00BF0398A0EB59
:1012F0000800C9F8000042F2E2702880CCE6F06BEA
:101300000A90DDE91E2314990A98FFF728FD834609
:10131000BBF1000F0CD100BFFFF778F800BF0098B9
:10132000FFF79CFA00BF00BF42F2D9702880B3E6F5
:10133000D6F84480C3451BD900BFFFF767F800BF4C
:101340000098FFF78BFA00BF00BFABEB0800C9F8AD
:10135000000042F2D87028809EE60000B2B0B1BA18
:10136000FEFFFEF8080A0EFC4801002030000020B5
:10137000149880000290042202991098FFF7C7FC8D
:101380000D900D9838BB1098D0F8448000BFFFF73F
:101390003DF800BF0098FFF761FA00BF00BF129848
:1013A00048B9C24504D9AAEB0800C9F800000EE00C
:1013B000C9F800A00BE00298404505D90298A0EBBF
:1013C0000800C9F8000002E00298C9F8000042F2E3
:1013D000E270288060E60020019034E03046DDE9CC
:1013E0001E12FFF794FC0C900C9820BBF06B0A9037
:1013F000D6F8448000BFFFF709F800BF0098FFF758
:101400002DFA00BF00BF01991498401A0590DDE93C
:101410001E2305990A98FFF7A2FC8246C24504D90B
:10142000AAEB0800C9F8000001E0C9F800A042F2E8
:10143000D870288030E6019ADDE90C0141F82200DD
:101440000198401C0190149901988842C6D3A64285
:101450000CD10E98A060E7600E9810B10E98C46091
:1014600001E0FB4804605FB1BC6009E070690F9067
:1014700026610F98606174610F9808B10F9804613C
:10148000F448206066600A98A0610A985844401E9B
:10149000E0610D982062C4F828B01F9860631E9820
:1014A00020631498E0621498606200BFFEF7AEFFFC
:1014B00000BF0098FFF7D2F900BF00BF42F21070E2
:1014C000288000BFE8E52DE9F04105460C460027DD
:1014D0001CB900BFFFF72CF800BF2DB942F2117004
:1014E00020800020BDE8F08100BF00BFFFF7B2F907
:1014F000074600BFFEF7A9FF00BFD7492868084488
:1015000040B1D649084418B1D549084408B902E0A9
:101510000FE000BF00BF00BFFEF778FF00BF3846F6
:10152000FFF79CF900BF00BF42F2887020800020C6
:10153000D8E700BF6E6A00BFFEF768FF00BF3846FD
:10154000FFF78CF900BF00BF42F2107020803046D8
:10155000C8E72DE9F04104460E4615464FF0000855
:101560001DB900BFFEF7E4FF00BF2CB942F21170B5
:1015700028800020BDE8F08126B942F293702880CF
:101580000020F7E700BF00BFFFF764F9804600BF07
:10159000FEF75BFF00BFAF49206888420DD000BF57
:1015A000FEF734FF00BF4046FFF758F900BF00BF09
:1015B00042F2887028800020DCE7206BB0420DD218
:1015C00000BFFEF723FF00BF4046FFF747F900BF0B
:1015D00000BF42F2937028800020CBE7606A68B9B0
:1015E00000BFFEF713FF00BF4046FFF737F900BF0B
:1015F00000BF42F2DE7028800020BBE7E16A606A2B
:1016000088420DD900BFFEF701FF00BF4046FFF73B
:1016100025F900BF00BF42F2957028800020A9E79D
:10162000606A401E6062D4E9080150F8217000BF72
:10163000FEF7ECFE00BF4046FFF710F900BF00BF09
:1016400042F210702880384694E72DE9F0470446AE
:101650000F4615464FF000091DB900BFFEF768FFA1
:1016600000BF2CB942F2117028800020BDE8F0873D
:1016700000BF00BFFFF7EEF8814600BFFEF7E5FEB2
:1016800000BF7449206888420DD000BFFEF7BEFE3F
:1016900000BF4846FFF7E2F800BF00BF42F2887083
:1016A00028800020E2E7E16A606A88420DD300BF2B
:1016B000FEF7ACFE00BF4846FFF7D0F800BF00BF02
:1016C00042F2957028800020D0E7E06AC01B461ED9
:1016D000E06AB0420DD800BFFEF798FE00BF484652
:1016E000FFF7BCF800BF00BF42F2957028800020D1
:1016F000BCE7606AB0420DD900BFFEF787FE00BFAD
:101700004846FFF7ABF800BF00BF42F29570288053
:101710000020ABE7206A50F8268000BFFEF776FE77
:1017200000BF4846FFF79AF800BF00BF42F21070B2
:10173000288040469AE72DE9F04F02460C4695690D
:10174000D2F81CB0AC4201D35C4502D90020BDE800
:10175000F08F536BB5FBF3F003FB105111B1A3EB0A
:10176000010C01E04FF0000C176BB7FBF3F003FB2B
:10177000107109B15E1A00E0002605EB0C08A4EB1D
:10178000080A07EB0609BAFBF9F009FB10A008B933
:10179000012000E0002086467046D8E72DE9F0479A
:1017A00004460F4615464FF0000A1DB900BFFEF76C
:1017B000BFFE00BF24B942F211702880BDE8F08757
:1017C0001FB942F211702880F8E700BF00BFFFF791
:1017D00041F8824600BFFEF738FE00BF1D49206871
:1017E00088420CD000BFFEF711FE00BF5046FFF745
:1017F00035F800BF00BF42F288702880DEE7394626
:101800002046FFF798FF8046B8F1010F0CD000BFCB
:10181000FEF7FCFD00BF5046FFF720F800BF00BFF9
:1018200042F297702880C9E700261CE0206A50F831
:101830002600B84216D100BFFEF7E8FD00BF5046B3
:10184000FFF70CF800BF00BF42F298702880B5E7A0
:1018500030000020504F4F4CB2B0B1BAFEFFFEF83E
:10186000080A0EFC761C606AB042DFD8E16A606A42
:1018700088420CD300BFFEF7C9FD00BF5046FEF7FB
:10188000EDFF00BF00BF42F2DD70288096E74FF009
:101890000008666A08E0206A50F82690B94502D12F
:1018A0004FF0010803E0761CE06AB042F3D800BFB5
:1018B000B8F1010F07D1D4E9080150F82100216ADD
:1018C00041F826000CE000BFFEF7A0FD00BF504627
:1018D000FEF7C4FF00BF00BF42F2887028806DE7AA
:1018E000D4E9080140F82170606A401C606200BFC2
:1018F000FEF78CFD00BF5046FEF7B0FF00BF00BFF3
:1019000042F21070288000BF58E72DE9F84F0446D6
:101910000F461546002000904FF0FF3B1DB900BF59
:10192000FEF706FE00BF2CB942F21170288058461F
:10193000BDE8F88F27B942F2117028805846F7E7C2
:1019400000BF00BFFEF786FF009000BFFEF77DFDE1
:1019500000BF4349206888420DD000BFFEF756FD06
:1019600000BF0098FEF77AFF00BF00BF42F2887008
:1019700028805846DCE739462046FFF7DCFE8046E3
:10198000B8F1010F0DD000BFFEF740FD00BF009879
:10199000FEF764FF00BF00BF42F2977028805846F0
:1019A000C6E7002613E0206A50F82600B8420DD1A1
:1019B00000BFFEF72BFD00BF0098FEF74FFF00BFF2
:1019C00000BF42F2987028805846B1E7761C606AE2
:1019D000B042E8D8E16A606A88420DD300BFFEF7E2
:1019E00015FD00BF0098FEF739FF00BF00BF42F2AF
:1019F000DD70288058469BE74FF00008666A08E0D3
:101A0000206A50F82690B94502D14FF0010803E052
:101A1000761CE06AB042F3D800BFB8F1010F11D1D3
:101A2000E06A401EA0EB060A00BFFEF7EFFC00BF15
:101A30000098FEF713FF00BF00BF42F2107028802D
:101A4000504675E700BFFEF7E1FC00BF0098FEF7C7
:101A500005FF00BF00BF42F288702880584667E744
:101A6000504F4F4C10B502460B461146002001E086
:101A7000491C401C19B10C780CB19842F8D310BD28
:101A800030B504464FF0FF312046FFF7EBFF054627
:101A9000284630BD70B504460D4616460CB90020E8
:101AA00070BD0DB90020FBE721462A46002304E063
:101AB00010780870491C521C5B1C21B11AB11078B7
:101AC00008B1B342F4D301B10AB90020E8E7B34248
:101AD00001D2002008702046E2E770B504460D46AA
:101AE0004FF0FF3229462046FFF7D4FF0646304626
:101AF00070BD70B503460C4615460BB9002070BD8D
:101B00000CB90020FBE70DB91846F8E7194600E0CC
:101B1000491C11B108780028FAD109B90020EEE774
:101B20002246002604E010780870491C521C761CDE
:101B300021B11AB1107808B1AE42F4D301B10AB99B
:101B40000020DCE7002008701846D8E770B504468E
:101B50000D464FF0FF3229462046FFF7CAFF0646E2
:101B6000304670BD2DE9F04305460B469446BCF166
:101B7000000F02D10020BDE8F08335B90BB9002079
:101B8000F9E7187842421046F5E713B92A7810466B
:101B9000F1E729461C460F4626467F1C761C4FF06F
:101BA000000805E0491C641C7F1C761C08F1010834
:101BB000087894F80090484505D1087818B117B115
:101BC0000EB1E045EED3E04501D10020D3E708781F
:101BD00094F80090484505D0087894F80090A0EB60
:101BE00009020BE0087808B9002207E02FB90EB906
:101BF000002203E03078424200E03A781046BAE72B
:101C000070B504460D464FF0FF3229462046FFF7D7
:101C1000A9FF0646304670BD2DE9F74F82B08046D9
:101C20000E46049818B9002005B0BDE8F08FB8F151
:101C3000000F09D10EB90020F6E73078FEF718FF43
:101C400007467C422046EFE73EB998F80000FEF7D1
:101C50000FFF05462C462046E6E7C146B246C84679
:101C6000C3465646CDF804A0D8460BF1010B019EA1
:101C7000701C0190C84699F80000FEF7F9FE054671
:101C800056469AF80000FEF7F3FE07460020009043
:101C900015E009F101090AF1010A0BF1010B0198A4
:101CA000401C01900098401C009099F80000FEF73D
:101CB000DFFE05469AF80000FEF7DAFE0746BD4251
:101CC0000BD199F8000040B1BBF1000F05D001988D
:101CD00018B1049900988842DBD30499009888428F
:101CE00001D10020A0E7BD4201D0EC1B16E00DB9E8
:101CF000002413E0BBF1000F0AD1019808B90024B9
:101D00000CE001990878FEF7B3FE07467C4205E037
:101D10009BF80000FEF7ACFE05462C46204683E704
:101D200070B504460D464FF0FF3229462046FFF7B6
:101D300073FF0646304670BD30B504460B46154667
:101D40000CB9002030BD0BB90020FBE72146002272
:101D500001E0491C521C31B1087820B10878A84232
:101D600001D09A42F5D309B90020EBE79A4201D39A
:101D70000020E7E70878A84201D00020E2E7084603
:101D8000E0E770B505460C4622464FF0FF31284685
:101D9000FFF7D2FF0646304670BD2DE9F0430546F9
:101DA0000E46174615B90020BDE8F0830EB9002095
:101DB000FAE72C46A6F1010949462046FFF752FEF4
:101DC000804644440CB90020EEE700E0641EAC42BB
:101DD00002D02078B842F9D12078B84201D0002052
:101DE000E2E72046E0E770B505460C4622464FF094
:101DF000FF312846FFF7D1FF0646304670BD70B56B
:101E000004460D4616460CB9002070BD0BB90020E3
:101E1000FBE721461A4605E00878A84200D10E707B
:101E2000491C521E19B1087808B1002AF4D1204685
:101E3000EBE7F0B504460D4616464FF0FF33324649
:101E400029462046FFF7DBFF07463846F0BD2DE95F
:101E5000FF4F06460F4615461EB9002004B0BDE8E8
:101E6000F08F0FB90020F9E70DB90020F6E7681CE4
:101E700000B101E04FF0FF30039029463046FFF7F4
:101E8000F1FD804638460399FFF7ECFD04460CB996
:101E90003046E3E7444501D90020DFE706EB080BB5
:101EA000BBF1000F01D10020D8E707EB040BBBF119
:101EB000000F01D10020D1E7A8EB040002904FF001
:101EC00000090020019000BF06EB090000902246A7
:101ED00039460098FFF746FE8246BAF1000F01D15D
:101EE000012000E00020019009F10109019810B9DA
:101EF00002988145E8D9BAF1000F01D00020ADE782
:101F00000098ABE770B504460D464FF0FF32294606
:101F10002046FFF79CFF0646304670BD2DE9FF4F77
:101F20008DB00F4615461A9E1D9818B9002011B0A5
:101F3000BDE8F08F002003900490012F01DA01200A
:101F40000390022D01D3242D01D90120039096B3D3
:101F50003046FEF729FD02900298012802D00120A8
:101F6000039028E0302E26D0A6F13000C0B20790B2
:101F70001B98012804D0A6F14100C0B2069003E0EE
:101F8000A6F16100C0B206900A2D02D80798A842B7
:101F900009DB0A2D09D907980A2804D3A5F10A00FC
:101FA0000699884201D9012000E00020059005989B
:101FB000012800D103901D9C0398002846D1DDF82C
:101FC00034A0DDF834A0CDF830A001200B9007E05C
:101FD0000B98401CC0B20B900C98B0FBF5F00C9025
:101FE0000C98A842F4D21098012800D100E00020FB
:101FF00009900B9909980844B84225DC002001900B
:102000000B98B84201DA0B9800E038460A903EB1CE
:10201000B8460A98391A0998081AC0B2089006E01A
:10202000DDE90910084400F0FF0800200890089836
:10203000002806DD302E01D1012000E000200490B0
:1020400004E00020049001E001200390039800B117
:10205000B84644441C9808B100202070641E4FF01C
:10206000000941E00398A8BBBAF1000F02D1B9F111
:10207000000F1CD1BAFBF5F005FB10A000F0FF0B20
:10208000BBF10A0F04D20BF1300004F801090BE098
:102090001B98012804D00BF1370004F8010903E074
:1020A0000BF1570004F80109BAFBF5FA1AE0109891
:1020B000012810D1049808B9019828B1049850B1AA
:1020C000A8F10100484506D12D2004F8010901209E
:1020D000019007E003E02EB104F8016902E03F201F
:1020E00004F8010909F10109C145BBD3039808B1FE
:1020F00000201CE71D981AE72DE9FF5F05460E46F4
:1021000017461C46DDE90F9ADDF8388000233A4671
:10211000314628468DE81007FFF700FF83465846F2
:1021200004B0BDE8F09F2DE9FF4F85B00446894615
:102130001F46DDE913AB002C02DA6542012601E0FF
:102140002546002612983346CDE902ABCDE9007052
:1021500049462846079AFFF7E1FE8046404609B007
:10216000BDE8F08F2DE9FF4F8BB006468946154636
:10217000B9F1000F02D10DF1240900BFC9F80060C8
:10218000189810B907A8189000BF0021189801707E
:102190001EB900200FB0BDE8F08F012D01D0242D15
:1021A00001D90020F6E734462078FEF7EBFB0390D8
:1021B00004E0641C2078FEF7E5FB039003980128F7
:1021C000F7D020782B2802D02D280BD103E0641CF7
:1021D0004FF0000B09E00E98012800D1641C4FF06D
:1021E000010B02E04FF0000B00BF00BF0A9425B1C5
:1021F000082D1CD0102D36D11EE02078302814D1A7
:10220000641C2078582802D078280BD100BF1025F4
:1022100067783846FEF79AFB8246BAF1010F00D183
:10222000641C01E0082500BF00E00A251CE02078BE
:10223000302800D1641C17E02078302812D1641CAB
:102240002078582802D078280AD100BF677838460D
:10225000FEF77CFB8246BAF1010F00D1641C00E05E
:1022600000BF00BF00E000BF00BF4FF0000800202B
:102270000290019040E027783846FEF719FB059060
:102280000598012836D13846FEF74CFB0690069893
:10229000012804D1A7F13000C0B208900FE0384601
:1022A000FEF72CFB04900498012804D1A7F15700F5
:1022B000C0B2089003E0A7F13700C0B208900898B8
:1022C000A84214DA029880B9304850F825004045F9
:1022D00009D308FB05F8089880440898804504D283
:1022E0000120029001E001200290641C04E0012022
:1022F000019001E00120019001980028BBD00298D4
:10230000012801D14FF0FF380A98844202D0C9F861
:10231000004001E0C9F80060189880F800B040461D
:1023200038E7F8B504460D46164600200346324607
:10233000294600902046FFF715FF07463846F8BDAE
:102340002DE9FC4105460E46174601A801233A46F1
:10235000314600902846FFF705FF04469DF804002B
:1023600040B9B4F1004F02D36FF0004000E02046C6
:10237000804607E0B4F1004F02D34FF0004000E088
:10238000604280464046BDE8FC810000ACBD0008CC
:10239000002800D17047002900D17047002A00D1E1
:1023A00070472DE9F81F00F0030301F00304A34276
:1023B00011D1C3F1040303F00303012B1DD3012A40
:1023C00000D2F2E011F8014B00F8014BA3F1010338
:1023D000A2F10102F1E700F0010301F00104A342C0
:1023E00000D094E0012B44D311F8014B00F8014BCD
:1023F000A3F10103A2F10102F4E7B2F5B47F26D301
:10240000B1E8F81FA0E8F81FB1E8F81FA0E8F81F2E
:10241000B1E8F81FA0E8F81FB1E8F81FA0E8F81F1E
:10242000B1E8F81FA0E8F81FB1E8F81FA0E8F81F0E
:10243000B1E8F81FA0E8F81FB1E8F81FA0E8F81FFE
:10244000B1E8F81FA0E8F81FA2F5B472D5E7282A72
:1024500006D3B1E8F81FA0E8F81FA2F12802F6E7BA
:10246000042A06D351F8043B40F8043BA2F10402CD
:10247000F6E7202A42D331F8023B20F8023B31F83C
:10248000023B20F8023B31F8023B20F8023B31F8D6
:10249000023B20F8023B31F8023B20F8023B31F8C6
:1024A000023B20F8023B31F8023B20F8023B31F8B6
:1024B000023B20F8023B31F8023B20F8023B31F8A6
:1024C000023B20F8023B31F8023B20F8023B31F896
:1024D000023B20F8023B31F8023B20F8023B31F886
:1024E000023B20F8023B31F8023B20F8023B31F876
:1024F000023B20F8023BA2F12002BAE7022A06D3EF
:1025000031F8023B20F8023BA2F10202F6E7102A62
:1025100042D311F8013B00F8013B11F8013B00F8F0
:10252000013B11F8013B00F8013B11F8013B00F8B9
:10253000013B11F8013B00F8013B11F8013B00F8A9
:10254000013B11F8013B00F8013B11F8013B00F899
:10255000013B11F8013B00F8013B11F8013B00F889
:10256000013B11F8013B00F8013B11F8013B00F879
:10257000013B11F8013B00F8013B11F8013B00F869
:10258000013B11F8013B00F8013B11F8013B00F859
:10259000013BA2F11002BAE7012A06D311F8013B70
:1025A00000F8013BA2F10102F6E7BDE8F81F704711
:1025B00010B59248006810B190480068804710BD7F
:1025C0008F4A1168002002E0002204C1401C8D4A9D
:1025D00012689042F8D38A4A12688A4B1B6802EB51
:1025E0008302121F884B1A60704710B58748006835
:1025F00010B186480068804710BD10B50446844875
:10260000006818B1204682490968884710BD10B596
:1026100004468048006818B120467E49096888470A
:1026200010BD10B504467C48006818B120467A49B0
:102630000968884710BDF0B50446DDE9055602EB90
:1026400085004FF0807C071F3846C7F800C0071F81
:1026500038463C60DFF8C4C1071F3846C7F800C0E1
:102660004FF0123C071F3846C7F800C04FF0033C3C
:10267000071F3846C7F800C04FF0023C071F384616
:10268000C7F800C0071F38463B60071F384639604F
:102690004FF0113C071F3846C7F800C04FF0103C00
:1026A000071F3846C7F800C04FF0093C071F3846DF
:1026B000C7F800C04FF0083C071F3846C7F800C0F5
:1026C0004FF0073C071F3846C7F800C04FF0063CE4
:1026D000071F3846C7F800C04FF0053C071F3846B3
:1026E000C7F800C04FF0043C071F3846C7F800C0C9
:1026F000F0BD70B54A48006810B14948006880478D
:1027000008F07AFA04464748006847490968884251
:1027100015D044480068D0F89400201A414909684F
:10272000C1F890003F480068D0F898003D4909681A
:10273000D1F8901008443B490968C1F898003A481C
:102740000068C0F89440FDF789FF054635480068E9
:10275000D0F8B000A84203D232480068C0F8B050A8
:1027600030480068D0F8B40030490968884205D282
:102770002E4800682B490968C1F8B40000202B4995
:10278000086070BD10B52A48006810B1284800687C
:10279000804710BD10B5002400BF00BFFEF75AF8F7
:1027A000044600BFFDF751FE00BF22480078401CE0
:1027B0002049087000BFFDF729FE00BF2046FEF744
:1027C0004DF800BF00BF07F090FD00F033F910BDD9
:1027D00001464A1E4FF0E0235A61174A106820F064
:1027E0007F4000BF10601A46126942F005021A616C
:1027F0001A46126942F002021A6170474400002032
:102800006CBE000870BE00083400002048000020A4
:10281000380000203C00002040000020DB9600082B
:102820004C000020180100201C010020A400002002
:10283000500000205800002020ED00E0704700000C
:1028400000241DE000BF00BFFEF704F8044600BFEF
:10285000FDF7FBFD00BFFA480068401CF84908601E
:10286000F8480068401CF749086000BFFDF7CEFD3E
:1028700000BF2046FDF7F2FF00BF00BFFFF798FE44
:10288000E0E710B58AB004460020ED4908600B204F
:1028900000210591CDE9070406910846EA49096837
:1028A000EA4A1268EA4B1B68CDE90132CDE9031010
:1028B0001F200023AFF27702E6A10090EA4805F05E
:1028C000CDF80AB010BD00210AE001EB4102E74B50
:1028D00003EB820000220281026042604A1CD1B2F6
:1028E0002029F2D3704770B50446FFF769FE002037
:1028F000DF490870DF490870DF490870DF49086068
:10290000DF490860DF490870DF490870DF49087057
:10291000DF490860DF490860DF490860DF49087067
:10292000DF4800680A21B0FBF1F0DE490860DE48AC
:10293000006858B1DD48056845B1DB48066803E02A
:10294000761E002028602D1D002EF9D10020D849C8
:102950000860D8490860D8490860D8490860D84953
:102960000860D8490860D8490860D849087008F05C
:1029700055F8FFF7A8FF204601F054FF208800B16A
:1029800070BD204602F0BCFA208800B1F8E720466E
:1029900002F0C8FA208800B1F2E7204603F0DEF921
:1029A000208800B1ECE7204603F0DCFE208800B16F
:1029B000E6E7204604F074FB208800B1E0E72046FB
:1029C00006F082FE208800B1DAE7204602F0BEF869
:1029D000208800B1D4E72046FFF753FF208800B1DC
:1029E000CEE7204607F051F8208800B1C8E720461E
:1029F00004F061FE208800B1C2E7204607F06FFFB7
:102A0000208800B1BCE700F047FEFFF717FF00BFCA
:102A1000B6E798480078012800D0704794480078BD
:102A2000FA2800DBF9E792480078401C90490870CA
:102A300000BFF2E710B500248E480078012800D0CE
:102A400010BD00BFFDF706FF044600BF88480078B0
:102A500028B900BF2046FDF701FF00BFF0E784481A
:102A60000078401E8249087008460078002805DD7D
:102A700000BF2046FDF7F2FE00BFE1E77E48007888
:102A8000002805DD00BF2046FDF7E8FE00BFD7E7C0
:102A900007F0CEFF7C4908700846007800EB400044
:102AA000724951F820007649086008460068734969
:102AB0000968884205D100BF2046FDF7CFFE00BF60
:102AC000BEE76F480068D0F88C00401C6C4909686C
:102AD000C1F88C007E480068401C7D4908604FF0BA
:102AE00080507C49086000BF2046FDF7B7FE00BF5C
:102AF00000BFA5E710B500245D480078002800DD80
:102B000010BD5D480078002800DDF9E700BFFDF743
:102B1000A1FE044600BF07F08BFF5B490870084622
:102B2000007800EB4000514951F8200054490860FA
:102B30000846006851490968884205D100BF20460F
:102B4000FDF78CFE00BFDBE74D480068D0F88C0035
:102B5000401C4B490968C1F88C005D480068401C66
:102B60005B4908604FF080505A49086000BF20461A
:102B7000FDF774FE00BF00BFC2E710B53E48007805
:102B8000012803D108F038F84149086010BD70B53C
:102B90000446002536480078002803DD46F66250DA
:102BA000208070BD33480078012803D045F6896045
:102BB0002080F6E730480078FA2803DB45F2092048
:102BC0002080EEE700BF00BFFDF744FE054600BFD2
:102BD000FDF73BFC00BF28480078401C26490870E0
:102BE000FFF7CBFF00BFFDF711FC00BF2846FDF744
:102BF00035FE00BF00BF0020208000BFD1E710B528
:102C00001D48007880B907F0F7FF21490968441A88
:102C100020480068A04201D21E4804601E48006897
:102C2000A04201D21C48046010BD70B504460025C6
:102C30000F48007800284FDD46F66550208070BDB3
:102C400054000020C000002048BE000844BE000818
:102C500040BE000875432F4F532D49494920496410
:102C60006C65205461736B0010810020A4820020E9
:102C70005800002060000020A8000020180100205B
:102C80001C0100208E0000208F00002090000020FA
:102C90009C000020A0000020A4000020B000002024
:102CA000A0BE0008AC00002070BE00086CBE00088A
:102CB000380000203C00002040000020440000209C
:102CC000480000204C00002050000020DE000020C2
:102CD000D400002004ED00E0FA480078012803D079
:102CE00045F68960208070BDF748007818B946F62F
:102CF00064502080F7E700BF00BFFDF7ABFD05463D
:102D000000BFFDF7A2FB00BFEF480078401EEE4970
:102D100008700846007800280CDD00BFFDF776FB40
:102D200000BF2846FDF79AFD00BF00BF46F663507E
:102D30002080D8E7FFF763FF00BFFDF767FB00BF08
:102D40002846FDF78BFD00BF00BFFFF7D3FE002034
:102D5000208000BFC7E72DE9F04105460C46164626
:102D6000002700BF00BFFDF775FD074600BFFDF758
:102D70006CFB00BF012D03D00020D449087002E095
:102D80000120D249087014B1D148046006E0D1484E
:102D900000680A21B0FBF1F0CD49086000BFFDF7E3
:102DA00035FB00BF3846FDF759FD00BF00BF0020CE
:102DB0003080BDE8F08110B501460C8924B1012CAA
:102DC00003D0022C0CD101E000BF14E008684A686F
:102DD00002610024C4601461D0600A6048600AE0A7
:102DE00008684A68C36800241C61C4600261D0603E
:102DF0000B60486000BF00BF10BD2DE9F0410446E4
:102E00000027B5480078002804DD48F2D140208032
:102E1000BDE8F081AC480078002803DD46F6635039
:102E20002080F5E7A9480078012803D046F67B10FA
:102E30002080EDE700BF00BFFDF70CFD074600BF97
:102E4000FDF703FB00BFA548007800EB4000A44954
:102E500001EB8006308902280CDA00BFFDF7D6FAB4
:102E600000BF3846FDF7FAFC00BF00BF46F67A10F7
:102E70002080CDE73046FFF79EFF3568286D18B9F2
:102E800093480068686501E0286D686500BFFDF73C
:102E9000BDFA00BF3846FDF7E1FC00BF00BFFFF7F9
:102EA00029FE0020208000BFB2E710B50446854807
:102EB0000078E8B907F0BCFD8A4908700846007838
:102EC000864908708748007800EB4000844951F833
:102ED0002000854908600846006884490860012090
:102EE0007849087008F08EFE43F69920208002E0B1
:102EF00045F68A60208010BD01460020088047F218
:102F0000C160704730B548B14568C1F8C05000F1A4
:102F10000804226893681D6AC56113E091F8345073
:102F2000022D02D0072D08D103E071A5C1F8C050D1
:102F300007E071A5C1F8C05003E072A5C1F8C05008
:102F400000BF00BF30BDF0B58E6896F837500789D6
:102F50003FB90127078100274F600F600160416082
:102F600023E007897F1C0781026806E0946894F8D3
:102F70003770AF4200DD02E05268002AF6D100BF90
:102F800032B900274F6043680B60596041600CE024
:102F900017682FB9116000270F604A60016004E0D4
:102FA00013680B604A6059601160F0BD10B5C287AC
:102FB000016300230AE000244C600C600C614C614A
:102FC0000C83CC61886020315C1CA3B29342F2DB9D
:102FD00010BD2DE9F041054695F8370000EB4000A3
:102FE0003F4901EB80042F69EE6887B946B900209C
:102FF00020812060606095F8370007F03BFD0EE00F
:103000002089401E208100203061266007E0208951
:10301000401E2081FE600EB9676000E0376100202D
:103020002861E860BDE8F08170B504460D4645B101
:103030002A462146344806F093FD032084F83600E2
:1030400002E0022084F836002046FFF7C2FF70BD80
:103050002DE9F04105460C4616461F4623480068F8
:1030600080F8346000202149096881F8350039462C
:103070001E480068FFF7D8FF6CB104F10808EC6047
:103080000122294619480068FFF790FF294640466B
:10309000FFF759FF06E0002014490968C887134963
:1030A00009680863114801682046FFF72BFFBDE857
:1030B000F08110B50489012C28D1002404604460FB
:1030C00036E0000060000020A8000020B0000020D2
:1030D000AC000020A0BE0008580000208E00002098
:1030E000A48200208F0000201C0100201801002075
:1030F0005461736B205100005461736B2053656DF4
:103100000000000020000000F00000200C6824B93E
:103110004A680024146002600AE04C6824B90B6815
:1031200000245C60436003E00B684A685A601360E7
:103130000489641E048100244C600C6010BD2DE9DC
:10314000F0410446256BE68F0AE0D5F80C8008F1C3
:10315000080729463846FFF7ACFF2035701E86B2B7
:10316000002EF2DC0020E0872063BDE8F08130B55E
:103170000346086BCC8F08E0C5689D4202D103610D
:10318000C26104E02030651EACB2002CF4DC00BF4C
:1031900030BD10B590F8373003EB4303FC4C04EB23
:1031A00083010B893BB901230B810023C3600361B9
:1031B0000860486009E00B895B1C0B810B68C360E9
:1031C000002303610A681061086010BD10B590F813
:1031D000373003EB4303EE4C04EB83010B893BB91F
:1031E00001230B810023C36003610860486008E08D
:1031F0000B895B1C0B810023C3604A680261D060AD
:10320000486010BD10B5044694F8370007F022FC62
:1032100094F83700DF490978884203D12046FFF748
:10322000D5FF02E02046FFF7B4FF10BD70B505469C
:103230000C46164694F8360008284ED2DFE800F017
:103240000405080906072E2F00BF00BF00BF45E098
:1032500000BF94F83400032804D1324621462846A2
:10326000FFF785FF0020A065A4F85C00266415B177
:103270002046FFF764FF94F83600032802D1204669
:1032800006F00BFD2046FFF7BDFF00203434A07090
:1032900001206070002004F834091FE000BF94F89A
:1032A0003400032804D1324621462846FFF75FFF49
:1032B0000020A065A4F85C00266415B12046FFF745
:1032C0003EFF204606F0E9FC04203434A0700120C3
:1032D0006070002004F8340900E000BF00BF70BD3A
:1032E00030B5AFF2E015C1F8C05000F10804226813
:1032F0001AB193681D6AC56102E0AFF2F815C561A5
:1033000030BD2DE9F04304460F4684F83770256B35
:10331000B4F83E8013E0D5F80C9009F10806308926
:10332000012807D929463046FFF7C3FE2946304613
:10333000FFF709FE2035A8F101001FFA80F8B8F167
:10334000000FE8D1BDE8F0830021016041600181F8
:10335000704703895B1C038103684B6000230B608B
:10336000026802B1116001600389012B00D1416044
:10337000704730B50346086BCC8F08E0C5689D42A6
:1033800002D10361C26104E02030651EACB2002CA2
:10339000F4DC00BF30BD70B506460C46154694F807
:1033A000360008284CD2DFE800F0040508090607BB
:1033B0002D2E00BF00BF00BF43E000BF94F83400D3
:1033C000032804D12A4621463046FFF7D2FF0020C9
:1033D000A065A4F85C0025642046FFF7B0FE94F8D1
:1033E0003600032802D1204606F057FC2046FFF79E
:1033F00009FF00203434A07002206070002004F81F
:1034000034091EE000BF94F83400032804D12A4692
:1034100021463046FFF7ADFF0020A065A4F85C0010
:1034200025642046FFF78BFE204606F036FC04207C
:103430003434A07002206070002004F8340900E0E9
:1034400000BF00BF70BDF0B50446059E086BCD8F70
:103450000AE0C768A74204D1046142610383C661E0
:1034600004E020306F1EBDB2002DF2DC00BFF0BDC5
:103470002DE9F84306460C4617469846089D94F8F1
:10348000360008285BD2DFE800F0040508090607CB
:10349000323300BF00BF00BF52E000BF94F83400D9
:1034A000032807D143463A46214630460095FFF7A8
:1034B000CAFF03E0A765A4F85C80256436B1204606
:1034C000FFF73DFE21463046FFF70AFF94F836002D
:1034D000032802D1204606F0E0FB2046FFF792FECB
:1034E00000203434A070607004F8340928E000BF74
:1034F00094F83400032807D143463A462146304623
:103500000095FFF7A0FF03E0A765A4F85C802564A1
:1035100036B12046FFF713FE21463046FFF7E0FEA6
:1035200094F83600072802D1204606F0B6FB0420A6
:103530003434A0700020607004F8340900E000BF4B
:1035400000BFBDE8F88310B5002400BFFDF782F985
:10355000044600BF00201049087010481049086058
:1035600008460068D0F88C00401C0968C1F88C003F
:103570000C480068401C0B4908604FF080500A4915
:10358000086000BF2046FDF769F900BF10BD0000CC
:10359000A48200208E0000208F000020D481002013
:1035A0001C010020D400002004ED00E070B50546A9
:1035B000002635480078012800D070BD00BF00BF4C
:1035C000FDF748F9064600BFFCF73FFF00BF2C6837
:1035D0004CB900BFFCF71AFF00BF3046FDF73EF9BB
:1035E00000BF00BFE9E72948844209D100BFFCF7CA
:1035F0000DFF00BF3046FDF731F900BF00BFDCE72B
:10360000606D10B1606D401E6065606D48B100BFB7
:10361000FCF7FCFE00BF3046FDF720F900BF00BFFD
:10362000CBE72889022809DA00BFFCF7EFFE00BFCC
:103630003046FDF713F900BF00BFBEE7144800781D
:10364000002809DD00BFFCF7E1FE00BF3046FDF7B2
:1036500005F900BF00BFB0E72846FFF7ACFB2C68B8
:10366000206D18B90B480068606501E0206D606549
:1036700000BFFCF7CBFE00BF3046FDF7EFF800BF00
:1036800000BF00BF99E70000B000002010810020BB
:10369000A8000020AC000020244A2549254A264ADB
:1036A0002649274A2748284A284A294A294A2A488F
:1036B0002A482B482B4A2C482C4A2D482D4A2E4864
:1036C0002E482F482F48304A304A314A3148324A32
:1036D000324A334833483448344835483548364808
:1036E000364A374A374A384A3848394839483A4AD0
:1036F0003A4A3B4A3B483C483C483D493D483E4AA3
:103700003E4A3F4A3F4A404A404A414A4148424A6B
:10371000424A43484348444A444A4548454A464A3F
:103720004648474800BF00BF00BF7047D4BE0008EE
:1037300038C00008D5BE0008D6BE0008D8BE0008B4
:10374000DCBE0008E0BE0008DDBE000808BF0008BF
:1037500009BF00080ABF00080CBF00080EBF000820
:1037600010BF000812BF000814BF000834BF0008D3
:1037700036BF000838BF00083ABF00083CBF000849
:103780003EBF000840BF00086CBF00086DBF0008C6
:103790006EBF000870BF000872BF000873BF00084A
:1037A00074BF000876BF000878BF00087ABF000821
:1037B0007CBF00087EBF000880BF0008B0BF0008C3
:1037C000B1BF0008B2BF0008B3BF0008B4BF000813
:1037D000B6BF0008B8BF0008E0BF0008E1BF00089E
:1037E000E2BF0008E3BF0008E4BF0008E6BF00082E
:1037F000E8BF0008ECBF0008EDBF0008EEBF0008FE
:10380000EFBF0008F0BF0008F1BF0008F2BF0008DA
:10381000F3BF0008F4BF0008F6BF0008F7BF0008B8
:10382000F8BF0008FABF0008FCBF0008FDBF000891
:1038300000C0000830C0000831C0000832C00008D5
:1038400034C00008FCA1C16100214161FB49096845
:1038500011B90021816105E0F84909688161F749E2
:1038600009684861F549086070472DE9F041044650
:103870000E4617461D464FF00008F1480078002814
:1038800004DD42F6E1602880BDE8F0811CB945F610
:10389000C3502880F8E700BF00BF00BFFCF7DAFF85
:1038A000804600BFFCF7D1FD00BFE6480078401C11
:1038B000E449087008460078012801D1FFF75DF956
:1038C00000BFFCF7A3FD00BF4046FCF7C7FF00BFE9
:1038D00000BF00BFDC482060666027620020606295
:1038E00004F10800FFF730FD2046FFF7ABFFD74893
:1038F0000088401CD549088000BF00BF00BFFCF70E
:10390000A9FF804600BFFCF7A0FD00BFCD480078AE
:10391000401ECC4908700846007808B9FFF76FF9D7
:1039200000BFFCF773FD00BF4046FCF797FF00BFE8
:1039300000BF00BF0020288000BFA5E770B5044687
:10394000C3482060C3A060600020206204F1080525
:103950002846FFF7F9FC70BD426981693AB9B74B57
:10396000196009B100234B610023836109E019B993
:1039700000239361436104E091614A610023836104
:10398000436170472DE9FC5F0546884614460020D8
:103990000090AB480078002805DD43F2C920208064
:1039A0000020BDE8FC9F25B945F6C35020800020CB
:1039B000F7E7B8F1000F03D0B8F1010F02D100E032
:1039C00000BF04E045F6256020800020E9E700BF45
:1039D0009D492868884204D045F6C45020800020C4
:1039E000DFE700BF00BF00BFFCF734FF009000BF5F
:1039F000FCF72BFD00BF93480078401C91490870EC
:103A000008460078012801D1FFF7B7F800BFFCF79E
:103A1000FDFC00BF0098FCF721FF00BF00BF00BF06
:103A200005F10809B9F808603746B8F1000F03D06E
:103A3000B8F1010F74D182E0002F44D12846FFF77E
:103A40008BFF82480088401E804908802846FFF787
:103A500075FF00BF00BF00BFFCF7FCFE009000BF79
:103A6000FCF7F3FC00BF77480078401E75490870EA
:103A700008460078D0B9FFF7C2F8784800880028D7
:103A80000BDD00BFFCF7C2FC00BF0098FCF7E6FEB0
:103A900000BF00BFFFF757FD11E000BFFCF7B6FC09
:103AA00000BF0098FCF7DAFE00BF08E000BFFCF79B
:103AB000ADFC00BF0098FCF7D1FE00BF00BF00BF07
:103AC000002020803AE000BF00BF00BFFCF7C2FE2C
:103AD000009000BFFCF7B9FC00BF5A480078401EB8
:103AE0005849087008460078D8B9FFF788F85B484D
:103AF000008800280BDD00BFFCF788FC00BF0098A1
:103B0000FCF7ACFE00BF00BFFFF71DFD12E000BFD9
:103B1000FCF77CFC00BF0098FCF7A0FE00BF09E0AA
:103B20004CE000BFFCF772FC00BF0098FCF796FE6B
:103B300000BF00BF00BF47F25F10208079E007F0B0
:103B40005BF801900AE0D9F800A0DAF808B059460D
:103B50002846019AFFF71FFC701E86B2002EF2D194
:103B60002846FFF7F9FE39480088401E374908808B
:103B70002846FFF7E3FE00BF00BF00BFFCF76AFE68
:103B8000009000BFFCF761FC00BF2E480078401E8B
:103B90002C4908700846007808B9FFF730F800BFD4
:103BA000FCF734FC00BF0098FCF758FE00BF00BFD4
:103BB00000BFFEF79FFF002020803AE000BF00BF5B
:103BC00000BFFCF747FE009000BFFCF73EFC00BFC3
:103BD0001C480078401E1B49087008460078D0B980
:103BE000FFF70DF81D48008800280BDD00BFFCF72B
:103BF0000DFC00BF0098FCF731FE00BF00BFFFF7CF
:103C0000A2FC11E000BFFCF701FC00BF0098FCF72C
:103C100025FE00BF08E000BFFCF7F8FB00BF0098DE
:103C2000FCF71CFE00BF00BF00BF45F625602080EA
:103C300000BF00BF3846B4E6200000007800002036
:103C400058000020A8000020464C41477C0000207E
:103C50004E4F4E453F464C41470000006C0000204F
:103C60002DE9F04106460F4614461D46DDF8188042
:103C7000FE480068C467FD480068A0F88450002032
:103C8000FA490968C1F880004346012239463046A6
:103C9000FFF7DEF9BDE8F0812DE9F04F8BB0054666
:103CA000884693469946DDE9147400200190F04857
:103CB0000078002806DD46F2AE10208000200BB010
:103CC000BDE8F08F25B945F6C35020800020F6E707
:103CD00048F20101A9EB0100894536D01ADC40F217
:103CE0000111A9EB010089452BD00CDCB9F1010FC2
:103CF00023D0B9F1020F21D0B9F1040F1FD0B9F1CF
:103D0000080F2AD11CE001281CD003281BD007284B
:103D100023D119E0B0F5807F1BD006DC012815D037
:103D2000032814D0072818D112E0A0F2011088B19E
:103D3000022810D0062810D10EE000BF00BF00BF3F
:103D400000BF00BF00BF00BF00BF00BF00BF00BF7B
:103D500000BF00BF00BF00BF04E045F62560208023
:103D60000020ACE700BFC3492868884204D045F66C
:103D7000C45020800020A2E709F4807010B14FF0F9
:103D8000010A01E04FF0000A0FB10020386009F08D
:103D90000F000A9000BF00BFFCF75CFD019000BF60
:103DA000FCF753FB00BF0A9801287CD002287BD087
:103DB000042802D0082878D182E0286A00EA0806A0
:103DC000464519D1BAF1010F02D1286AB0432862E1
:103DD000A6480068C0F880600FB1686A386000BF0C
:103DE000FCF714FB00BF0198FCF738FD00BF00BFD3
:103DF00000202080304662E709F4004068B100BF2F
:103E0000FCF704FB00BF0198FCF728FD00BF00BFD2
:103E100046F2B0102080002051E797480078002833
:103E20000DDD00BFFCF7F2FA00BF0198FCF716FDAC
:103E300000BF00BF46F66350208000203FE700BF70
:103E40008D480078401C8C4908700846007801288D
:103E500001D1FEF792FE00BFFCF7D8FA00BF01982F
:103E6000FCF7FCFC00BF00BF00BF4B4642462946A2
:103E700002A8CDF800B0FFF7F3FE00BF00BF00BFFF
:103E8000FCF7E8FC019000BFFCF7DFFA00BF7A48BE
:103E90000078401E784908700846007808B9FEF797
:103EA000AEFE00BF02E089E010E18DE1FCF7AEFA62
:103EB00000BF0198FCF7D2FC00BF00BF00BF91E13A
:103EC000286A00EA0806CEB1BAF1010F02D1286AC9
:103ED000B043286265480068C0F880600FB1686A26
:103EE000386000BFFCF792FA00BF0198FCF7B6FCFF
:103EF00000BF00BF002020803046E0E609F400400B
:103F000068B100BFFCF782FA00BF0198FCF7A6FC7D
:103F100000BF00BF46F2B01020800020CFE6564818
:103F2000007800280DDD00BFFCF770FA00BF019893
:103F3000FCF794FC00BF00BF46F6635020800020D1
:103F4000BDE600BF4C480078401C4B49087008464D
:103F50000078012801D1FEF710FE00BFFCF756FAE9
:103F600000BF0198FCF77AFC00BF00BF00BF4B46C2
:103F70004246294602A8CDF800B0FFF771FE00BF07
:103F800000BF00BFFCF766FC019000BFFCF75DFAC4
:103F900000BF39480078401E37490870084600784D
:103FA00008B9FEF72CFE00BFFCF730FA00BF0198FD
:103FB000FCF754FC00BF00BF00BF13E1286A28EAE9
:103FC0000006464519D1BAF1010F02D1286A3043E3
:103FD000286226480068C0F880600FB1686A3860BF
:103FE00000BFFCF713FA00BF0198FCF737FC00BFD5
:103FF00000BF00202080304661E609F4004068B12F
:1040000000BFFCF703FA00BF0198FCF727FC00BFD4
:1040100000BF46F2B0102080002050E6164800781D
:1040200000280DDD00BFFCF7F1F900BF0198FCF797
:1040300015FC00BF00BF46F66350208000203EE61E
:1040400000BF0D480078401C0B49087008460078F6
:10405000012801D1FEF791FD00BFFCF7D7F900BFA1
:104060000198FCF7FBFB00BF00BF07E01801002030
:1040700058000020464C4147A800002000BF4B4696
:104080004246294602A8CDF800B0FFF7E9FD00BF7F
:1040900000BF00BFFCF7DEFB019000BFFCF7D5F9C5
:1040A00000BFF8480078401EF649087008460078BE
:1040B00008B9FEF7A4FD00BFFCF7A8F900BF0198FE
:1040C000FCF7CCFB00BF00BF00BF8BE0286A28EAEA
:1040D0000006CEB1BAF1010F02D1286A304328623E
:1040E000E9480068C0F880600FB1686A386000BFB6
:1040F000FCF78CF900BF0198FCF7B0FB00BF00BFD4
:10410000002020803046DAE509F4004068B100BFA5
:10411000FCF77CF900BF0198FCF7A0FB00BF00BFD3
:1041200046F2B01020800020C9E5D648007800286B
:104130000DDD00BFFCF76AF900BF0198FCF78EFBAC
:1041400000BF00BF46F6635020800020B7E500BFE7
:10415000CC480078401CCB490870084600780128FC
:1041600001D1FEF70AFD00BFFCF750F900BF01982E
:10417000FCF774FB00BF00BF00BF4B464246294618
:1041800002A8CDF800B0FFF76BFD00BF00BF00BF75
:10419000FCF760FB019000BFFCF757F900BFB9487E
:1041A0000078401EB74908700846007808B9FEF745
:1041B00026FD00BFFCF72AF900BF0198FCF74EFB73
:1041C00000BF00BF00BF0DE000BFFCF71FF900BF3C
:1041D0000198FCF743FB00BF00BF45F62560208037
:1041E00000206CE500BFFEF785FC00BF00BFFCF7B8
:1041F00031FB019000BFFCF728F900BFA24800681E
:1042000090F8350030B101280CD002282CD00328BA
:104210003CD119E01FB19C480068006C3860002058
:10422000208040E01FB198480068006C386000BFF3
:10423000FCF7ECF800BF0198FCF710FB00BF00BFD3
:1042400046F2A91020802EE00FB10020386000BF98
:10425000FCF7DCF800BF0198FCF700FB00BF00BFD3
:1042600047F2D92020801EE01FB187480068006C0B
:10427000386000BFFCF7CAF800BF0198FCF7EEFAFF
:1042800000BF00BF45F6C25020800CE000BFFCF725
:10429000BDF800BF0198FCF7E1FA00BF00BF46F689
:1042A0002E60208000BF00BF208808B1002006E5F6
:1042B00075480068D0F88060BAF1010F22D10A98E1
:1042C00001280BD002280AD0042802D008280AD1DD
:1042D00000E000BF286AB043286212E000BF286AED
:1042E000304328620DE000BFFCF790F800BF019852
:1042F000FCF7B4FA00BF00BF45F62560208000201F
:10430000DDE400BF00BFFCF781F800BF0198FCF7B7
:10431000A5FA00BF00BF002020803046CFE42DE981
:10432000F05F05460E4614464FF0000A57480078E5
:10433000002805DD46F2AA1020800020BDE8F09F8D
:1043400025B945F6C35020800020F7E74EB1B6F5F9
:10435000807F07D0B6F5004F05D0B6F5014F04D1E8
:1043600002E000BF00BF00BF04E045F625602080EA
:104370000020E3E700BF46492868884204D045F69C
:10438000C45020800020D9E700BF00BFFCF762FACC
:10439000824600BFFCF759F800BF05F108073889CD
:1043A00068B900BFFCF732F800BF5046FCF756FA78
:1043B00000BF00BF46F2AB1020800020BEE700BF68
:1043C00030480078401C2F490870084600780128C2
:1043D00001D1FEF7D2FB00BFFCF718F800BF504632
:1043E000FCF73CFA00BF00BF00BF4FF0000806F02A
:1043F00003FC83460FE03868D0F808905A464946D7
:104400002846FEF713FF08F101001FFA80F8B6F501
:10441000807F00D002E038890028ECDC00BF00BFBC
:1044200000BF00BFFCF716FA824600BFFCF70DF88C
:1044300000BF14480078401E1249087008460078F2
:1044400008B9FEF7DCFB00BFFBF7E0FF00BF5046FA
:10445000FCF704FA00BF00BF00BF06F4004008B933
:10446000FEF748FB00202080404667E770B5044611
:1044700000260648007800280CDD46F2AE102080A9
:10448000002070BDA8000020180100205800002066
:10449000464C414700BF00BFFCF7DCF9064600BFB1
:1044A000FBF7D3FF00BFE3480068D0F8805000BF9F
:1044B000FBF7ACFF00BF3046FCF7D0F900BF00BFF0
:1044C000002020802846DCE770B504460E461546DD
:1044D0003434E664002060702070E560A078343CDD
:1044E00008281DD2DFE800F00405080907061718A0
:1044F00000BF00BF00BF14E000BF94F836000328DF
:1045000002D1204605F0C9FB2046FEF77BFE0020C5
:1045100084F8360005E000BF042084F8360000E08F
:1045200000BF00BF2046FEF70AFE70BD2DE9F04F28
:1045300085B00446894692469B46DDF838800020C7
:10454000009000BF00BFFCF785F9009000BFFBF7AB
:104550007CFF00BFBAF1000F0AD0BAF1010F0DD0F5
:10456000BAF5004F05D06FF40040504460B906E042
:1045700000BF206A40EA0900206216E000BF206AFE
:1045800020EA0900206210E000BFFBF73FFF00BFF8
:104590000098FCF763F900BF00BF45F62560A8F856
:1045A0000000002005B0BDE8F08F00BFC4F824B0C3
:1045B00004F1080001900198008968B900BFFBF779
:1045C00025FF00BF0098FCF749F900BF00BF00209D
:1045D000A8F80000206AE5E700BF97480078401C73
:1045E0009549087008460078012801D1FEF7C5FA00
:1045F00000BFFBF70BFF00BF0098FCF72FF900BFCF
:1046000000BF00BF01980768BD6883E0786802902A
:1046100095F8840000F00F000390039801281ED045
:10462000022829D0042802D0082830D10CE0206AC2
:10463000E96F00EA0106E86FB04204D15A463146FC
:104640002846FFF741FF5FE0206AE96F00EA0106B4
:1046500026B15A4631462846FFF736FF54E0E86F48
:10466000216A20EA0106E86FB04204D15A46314679
:104670002846FFF729FF47E0E86F216A20EA010694
:1046800026B15A4631462846FFF71EFF3CE000BFE0
:1046900000BF00BFFCF7DEF8009000BFFBF7D5FEBF
:1046A00000BF65480078401E6349087008460078DE
:1046B000D0B9FEF7A4FA6148008800280BDD00BFDE
:1046C000FBF7A4FE00BF0098FCF7C8F800BF00BFCE
:1046D000FEF739FF11E000BFFBF798FE00BF00981E
:1046E000FCF7BCF800BF08E000BFFBF78FFE00BF7F
:1046F0000098FCF7B3F800BF00BF00BF43F6FF20EF
:10470000A8F8000000204DE700BF029F0FB1BD6870
:1047100000E00025002D7FF479AF00BF00BF00BF8F
:10472000FCF798F8009000BFFBF78FFE00BF4248EF
:104730000078401E404908700846007808B9FEF726
:104740005EFA00BFFBF762FE00BF0098FCF786F838
:1047500000BF00BF00BF0AF4004008B9FEF7CAF965
:1047600000BF00BFFCF776F8009000BFFBF76DFEBE
:1047700000BF206A049000BFFBF748FE00BF00980E
:10478000FCF76CF800BF00BF0020A8F800000498F8
:1047900008E72DE9FF470546884617461C4635B908
:1047A00045F6C3502080002004B0BDE8F0874FB12B
:1047B000012F08D0B7F5004F06D06FF40040384401
:1047C00020B902E000BF00BF00BF04E045F625604D
:1047D00020800020E8E700BF19492868884204D0FB
:1047E00045F6C45020800020DEE706F005FA0646B4
:1047F0001448007800280BDD00231A46294610488B
:10480000CDE90087CDE9026400F022F80020CBE773
:1048100033463A46414628460094FFF787FE8146D4
:104820004846C1E70021084A1160084A118001800A
:104830007047000018010020A80000206C00002034
:10484000464C414758000020780000207C000020A2
:104850002DE9F84F04460D4616461F46DDE90BAB21
:10486000DDF82890DDF834800020009000BF00BF04
:10487000FBF7F0FF009000BFFBF7E7FD00BFE74844
:104880000088E749098888423EDAE4480088401CED
:10489000E2490880E34800880988884203DADF4853
:1048A0000088E0490880E04800680460DE4800684D
:1048B0008560DD480068C660DB4800680782DA482A
:1048C0000068C0F81490D8480068A0F818A0D6482E
:1048D0000068C0F81CB0D44800684068D24908603D
:1048E0000120D2490881D24808604860002006F0C3
:1048F000B1F8D048007818B1CE480078CE49087099
:104900000020A8F8000008E0CC480088401CCB49F3
:10491000088044F25360A8F8000000BFFBF776FD62
:1049200000BF0098FBF79AFF00BF00BFBDE8F88FFB
:104930003EB5C34800680068C24A811A904279D0E7
:104940000FDCC149084400283ED0C0490844A8B142
:10495000BF490844002860D0BE49084400286AD1F5
:104960003FE0BD480844002850D0BC490844002816
:1049700062D0BB4908440028F1D110E002A8B04D34
:1049800000902D68EB69AE4D2D682A8BAC4D2D68DB
:104990006969AB4D2D68A868FFF7C8FD7AE002A9E8
:1049A000A7480068C069A64DCDE900012D682B8B92
:1049B000A34D2D682A8AA24D2D68E968A04D2D6867
:1049C000A86801F0AEFD65E09D4B1B68DA699C4B61
:1049D0001B68198B9A4B1B68986802AB02F005FAAA
:1049E00058E002A996480068C069954DCDE90001DC
:1049F0002D682B8B924D2D682A8A914D2D68E96880
:104A00008F4D2D68A86803F0D3FC43E08C490968FA
:104A1000886802A903F0C3FE3CE0894B1B68DA6991
:104A2000874B1B68198B864B1B68986802AB04F098
:104A300087F92FE007E02CE081490968886802A91E
:104A400004F018FD26E07C49097801EB4101774A22
:104A500002EB8100FEF7AAFD7948006802AB002155
:104A6000C269804804F06CF97F480068401E7E49A6
:104A700008600846006858B97C480068086006F07D
:104A8000BBF8044602AB22460021794804F058F9ED
:104A900000E000BF00BF3EBD002756E0002652E008
:104AA00000BF00BFFBF7D6FE074600BFFBF7CDFCFB
:104AB00000BF5A48008898B900205C490881086006
:104AC000486005F0D7FF00BFFBF7A0FC00BF3846E9
:104AD000FBF7C4FE00BF00BFFEF70CF8012632E072
:104AE00000BFFBF793FC00BF3846FBF7B7FE00BFE3
:104AF00000BF06F081F80546FFF71AFF06F07CF8C4
:104B0000441B5C480068A04201D25A48046000BFC0
:104B100000BFFBF79FFE074600BFFBF796FC00BFF8
:104B2000474800684068464908603C480088401E85
:104B30003A49088000BFFBF769FC00BF3846FBF725
:104B40008DFE00BF00BF002EAAD0A7E7F0B589B048
:104B500005460020394908804748006820B944F2DA
:104B60005260288009B0F0BD2D480088022803DA81
:104B700044F254602880F5E700203E4908603E4832
:104B800004682646203600270CE03C4820600020C0
:104B9000A060E0602082606120836660203420365F
:104BA000781C87B21E4800888742EEDB203C3248E2
:104BB000066866601C4806602148066000201749A8
:104BC0000880184908802E48006818B944F25560DA
:104BD0002880C7E72B4800682B490968884203D220
:104BE00044F256602880BDE7032000210591CDE9FD
:104BF0000705069123480068244A1268204B1B6869
:104C0000CDE90301CDE9013200910B46AFF27712F5
:104C10001FA1074802F022FF00BFA3E76C0000209D
:104C200054BE00086E00002064000020A482002012
:104C3000D48100208E000020900000207000002011
:104C4000680000205449434BADBAB2BE0DF90BFACF
:104C5000F2F8F7FF0006F6FF00F7FDF700FFEFFFA1
:104C600003FE0FFEE8840020140100201001002044
:104C7000D88500207400002050BE00084E4F4E45DD
:104C80005CBE000864BE00089CBE000860BE000850
:104C900075432F4F532D494949204953522051758F
:104CA000657565205461736B00000000002181610F
:104CB0009749096811B90021C16105E09449096863
:104CC000C1619349096888619149086070472DE97D
:104CD000FF4F83B0044615461F46DDE910960020BD
:104CE00000908C480078002805DD45F2B9603080DE
:104CF00007B0BDE8F08F1DB945F2BB603080F7E723
:104D0000022F03DA45F2BC603080F1E7B9F1040FFD
:104D100003D245F2C1603080EAE74FF0030ABAF1EE
:104D2000000F0DD005EA0A0018B145F2BB603080D3
:104D3000DEE709EA0A0018B145F2C1603080D7E722
:104D4000AB46A846781E80B201900020029007E092
:104D5000C844CBF80080C3460298401C80B2029041
:104D6000DDE901108842F3DB0020CBF8000000BF32
:104D700000BF00BFFBF76EFD009000BFFBF765FBB7
:104D800000BF65480078401C6349087008460078F9
:104D9000012801D1FDF7F1FE00BFFBF737FB00BF93
:104DA0000098FBF75BFD00BF00BF00BF5B482060C1
:104DB0000498A0606560E560A7826782A4F81090FF
:104DC0002046FFF773FF56480088401C544908806E
:104DD00000BF00BF00BFFBF73DFD009000BFFBF729
:104DE00034FB00BF4C480078401E4B490870084611
:104DF000007808B9FDF703FF00BFFBF707FB00BF12
:104E00000098FBF72BFD00BF00BF00BF00203080E3
:104E100000BF6DE72DE9F04104460D4600272CB98F
:104E200045F2BF6028800020BDE8F08100BF00BFD0
:104E3000FBF710FD074600BFFBF707FB00BFA08A8A
:104E400068B900BFFBF7E2FA00BF3846FBF706FD82
:104E500000BF00BF45F2C26028800020E4E7E6689A
:104E60003068E060A08A401EA08200BFFBF7CEFA47
:104E700000BF3846FBF7F2FC00BF00BF00202880CF
:104E80003046D1E72DE9F04104460E46154600278D
:104E900024B945F2BF602880BDE8F0811EB945F213
:104EA000BE602880F8E700BF00BFFBF7D3FC0746D1
:104EB00000BFFBF7CAFA00BFA08A618A88420CDBF8
:104EC00000BFFBF7A3FA00BF3846FBF7C7FC00BFE3
:104ED00000BF45F2BA602880DEE7E0683060E66037
:104EE000A08A401CA08200BFFBF790FA00BF3846A2
:104EF000FBF7B4FC00BF00BF0020288000BFCBE759
:104F00000021034A1160064A1180018070470000A9
:104F10008000002058000020A80000204D454D20B2
:104F20008400002070B50146854D2D681DB945F2FD
:104F30001E750D8070BD834D2D881DB945F21D7500
:104F40000D80F7E77E4D28682A6810327D4D2D8848
:104F50006D1EACB2002308E00260002545600581AB
:104F6000C560103010325D1CABB2A342F4DB0025EB
:104F7000056045600581C560714D2D68724E3560D4
:104F8000704D2D88B5800025F58035810D8000BFDE
:104F9000D0E710B5014648894B89002B17DD0A6818
:104FA000694B1B681360684C4B6823602346DB88A1
:104FB0004C891B1B644CE38023469B884C8923440B
:104FC000614CA38000234B818B810B604B6010BD33
:104FD0000181002242818281026042607047F0B507
:104FE00004460D46608940B90020288002B1106057
:104FF00046F2925018800020F0BD61684E68088922
:1050000028800AB1C868106008686060606818B9D4
:1050100000202060608102E06089401E60814A4873
:1050200000680860484801608088401C464FB8808E
:105030003846C088401EF880002018803046DBE7E4
:105040002DE9F0410D46DDE90674B0F80AC0B0F86C
:105050000880C44505DB46F2935CA4F800C0BDE8B7
:10506000F081DFF8E4C0BCF804C0BCF1000F04D14B
:1050700045F21D7CA4F800C0F1E7DFF8CCC0DCF8F5
:105080000010DFF8C480D1F800C0C8F800C0C446E2
:10509000BCF804C0ACF1010CA8F804C0C446BCF8CC
:1050A00006C00CF1010CA8F806C0C446BCF808C044
:1050B000B8F80680C44507DADFF88CC0BCF806C033
:1050C000DFF88480A8F808C0B0F80AC0BCF1000F6F
:1050D0000AD1016041604FF0010CA0F80AC04FF006
:1050E000000CC1F800C017E003F0100CBCF1000F79
:1050F00007D10668316001604FF0000CC1F800C0B4
:1051000004E0D0F804C0C1F800C04160B0F80AC0A3
:105110000CF1010CA0F80AC0B0F80CC0B0F80A807D
:10512000C44503DAB0F80AC0A0F80CC04D600A818B
:10513000CF604FF0000CA4F800C000BF8FE7000064
:1051400080BE000878BE000898820020F9A1C161E5
:1051500000214161F849096811B90021816105E028
:10516000F54909688161F44909684861F2490860B4
:1051700070472DE9F04104460E4615460027EF48DA
:105180000078002804DD42F6E1602880BDE8F08167
:105190001CB945F6C3502880F8E700BF00BF00BF28
:1051A000FBF758FB074600BFFBF74FF900BFE44889
:1051B0000078401CE249087008460078012801D1B7
:1051C000FDF7DBFC00BFFBF721F900BF3846FBF71A
:1051D00045FB00BF00BF00BFDA48206066600020CA
:1051E000206284F82500A062202084F8240004F1C5
:1051F0000800FEF7A9F82046FFF7A8FFD24800886C
:10520000401CD149088000BF00BF00BFFBF722FB54
:10521000074600BFFBF719F900BFC9480078401ED8
:10522000C74908700846007808B9FDF7E8FC00BFD8
:10523000FBF7ECF800BF3846FBF710FB00BF00BFE0
:1052400000BF0020288000BFA0E710B50446BF487B
:105250002060BFA060600020206284F82500A0626A
:10526000202084F8240004F10800FEF76DF810BD3A
:10527000426981693AB9B04B196009B100234B61A9
:105280000023836109E019B900239361436104E0BD
:1052900091614A6100238361436170472DE9FE4FAC
:1052A00005468946144600200090A448007800284E
:1052B00005DD43F2C92020800020BDE8FE8F25B91E
:1052C00045F6C35020800020F7E7B9F1000F03D066
:1052D000B9F1010F02D100E000BF04E045F62560FE
:1052E00020800020E9E700BF96492868884204D062
:1052F00045F6C45020800020DFE700BF00BF00BF9C
:10530000FBF7A8FA009000BFFBF79FF800BF8C489E
:105310000078401C8A49087008460078012801D1AD
:10532000FDF72BFC00BFFBF771F800BF0098FBF7FF
:1053300095FA00BF00BF00BF05F1080ABAF808706F
:10534000B846B9F1000F03D0B9F1010F75D183E070
:10535000B8F1000F44D12846FFF78AFF7A48008849
:10536000401E794908802846FFF76FFF00BF00BF45
:1053700000BFFBF76FFA009000BFFBF766F800BFB5
:105380006F480078401E6E49087008460078D0B912
:10539000FDF735FC7048008800280BDD00BFFBF7E7
:1053A00035F800BF0098FBF759FA00BF00BFFEF7C1
:1053B000CAF811E000BFFBF729F800BF0098FBF71F
:1053C0004DFA00BF08E000BFFBF720F800BF0098CF
:1053D000FBF744FA00BF00BF00BF002020803AE086
:1053E00000BF00BF00BFFBF735FA009000BFFBF71E
:1053F0002CF800BF52480078401E514908700846FA
:105400000078D8B9FDF7FBFB5348008800280BDD76
:1054100000BFFAF7FBFF00BF0098FBF71FFA00BFC1
:1054200000BFFEF790F812E000BFFAF7EFFF00BFF1
:105430000098FBF713FA00BF09E0D1E000BFFAF7CC
:10544000E5FF00BF0098FBF709FA00BF00BF00BFEF
:1054500047F25F102080FEE02E6A002E7ED096F884
:10546000370095F8241088427AD096F8360008283C
:1054700024D2DFE800F004131A1B14151C1D30465B
:10548000FDF7A7FD95F8240086F8370096F8370059
:1054900005F0E0FA3046FDF799FE60E000BF00BF7E
:1054A00095F8240086F8370059E000BF00BF00BF20
:1054B00095F824103046FDF724FF50E000BF00BFF0
:1054C00000BFFBF7C7F9009000BFFAF7BEFF00BFAF
:1054D0001B480078401E1A49087008460078D0B969
:1054E000FDF78DFB1C48008800280BDD00BFFAF794
:1054F0008DFF00BF0098FBF7B1F900BF00BFFEF7BA
:1055000022F811E000BFFAF781FF00BF0098FBF717
:10551000A5F900BF08E000BFFAF778FF00BF0098C8
:10552000FBF79CF900BF00BF00BF46F62D6020804E
:105530000020C2E620000000880000205800002063
:10554000A80000204D5554588C0000204E4F4E4569
:105550003F4D5554455800006C00002000E000BF4E
:1055600005F04AFB01900BE0DAF800B0DBF8080028
:1055700002902846DDE90121FDF70DFF781E87B274
:10558000002FF1D12846FFF773FEF9480088401E2E
:10559000F74908802846FFF758FE00BF00BF00BF4C
:1055A000FBF758F9009000BFFAF74FFF00BFF14832
:1055B0000078401EEF4908700846007808B9FDF7EA
:1055C0001EFB00BFFAF722FF00BF0098FBF746F969
:1055D00000BF00BF00BFFDF78DFA002020803AE039
:1055E00000BF00BF00BFFBF735F9009000BFFAF71E
:1055F0002CFF00BFDF480078401EDE4908700846D7
:105600000078D0B9FDF7FBFADB48008800280BDDF5
:1056100000BFFAF7FBFE00BF0098FBF71FF900BFC1
:1056200000BFFDF790FF11E000BFFAF7EFFE00BFEB
:105630000098FBF713F900BF08E000BFFAF7E6FE99
:1056400000BF0098FBF70AF900BF00BF00BF45F696
:105650002560208000BF00BF40462EE62DE9F047C0
:1056600088B00546894690461C46109E4FF0000AB9
:10567000C2480078002805DD46F2AE10308008B040
:10568000BDE8F0871DB945F6C3503080F7E7B8F1A3
:10569000000F03D0B8F5004F02D100E000BF03E0D7
:1056A00045F625603080EAE700BFB54928688842A2
:1056B00003D045F6C4503080E1E70CB100202060F3
:1056C00000BF00BFFBF7C6F8824600BFFAF7BDFE79
:1056D00000BF95F82500D0B9AA4800682862A948FB
:1056E000006890F8370085F82400012085F825002F
:1056F0000CB1A86A206000BFFAF788FE00BF5046D0
:10570000FBF7ACF800BF00BF00203080B7E79D4931
:10571000286A0968884214D195F82500401C85F84C
:1057200025000CB1A86A206000BFFAF76FFE00BF29
:105730005046FBF793F800BF00BF45F282703080FF
:105740009DE708F4004060B100BFFAF75FFE00BFBC
:105750005046FBF783F800BF00BF46F2B010308020
:105760008DE78448007800280CDD00BFFAF74EFE74
:1057700000BF5046FBF772F800BF00BF46F663500B
:1057800030807CE700BF7B480078401C7949087076
:1057900008460078012801D1FDF7EFF900BFFAF7BC
:1057A00035FE00BF5046FBF759F800BF00BF00BFF1
:1057B0002F6A97F837007349096891F837108842C3
:1057C0006ADD97F8360008282AD2DFE800F00415D1
:1057D0001E1F171620213846FDF7FBFB694800689D
:1057E00090F8370087F8370097F8370005F032F95E
:1057F0003846FDF7CEFC4EE000BF00BF61480068B0
:1058000090F8370087F8370045E000BF00BF00BFC1
:105810005C48006890F837103846FDF772FD3AE0B2
:1058200000BF00BF00BFFBF715F8824600BFFAF7C4
:105830000CFE00BF4F480078401E4E4908700846D5
:105840000078D0B9FDF7DBF94B48008800280BDD64
:1058500000BFFAF7DBFD00BF5046FAF7FFFF00BFBD
:1058600000BFFDF770FE11E000BFFAF7CFFD00BFEB
:105870005046FAF7F3FF00BF08E000BFFAF7C6FD95
:1058800000BF5046FAF7EAFF00BF00BF00BF46F670
:105890002D603080F3E600BF4B460422294668465F
:1058A000FDF7D6FB00BF00BF00BFFAF7D3FF82466B
:1058B00000BFFAF7CAFD00BF2E480078401E2D49F0
:1058C00008700846007808B9FDF799F900BFFAF7A3
:1058D0009DFD00BF5046FAF7C1FF00BF00BF00BFEB
:1058E000FDF708F900BF00BFFAF7B4FF824600BF1A
:1058F000FAF7ABFD00BF2348006890F8350030B1DF
:1059000001280CD002281AD0032821D110E01CB1A4
:105910001C480068006C2060002030801CE01CB136
:1059200018480068006C206046F2A910308013E02F
:105930000CB10020206047F2D92030800CE01CB16F
:1059400010480068006C206045F6C250308003E0CB
:1059500046F62E60308000BF00BF00BFFAF756FD4C
:1059600000BF5046FAF77AFF00BF00BF00BF86E6CF
:105970008C000020A80000206C00002058000020AF
:105980004D555458180100202DE9F05F05460E468C
:1059900014464FF0000AF5480078002805DD46F26D
:1059A000AA1020800020BDE8F09F25B945F6C3501D
:1059B00020800020F7E74EB1B6F5807F07D0B6F51E
:1059C000004F05D0B6F5014F04D102E000BF00BF83
:1059D00000BF04E045F6256020800020E3E700BF1B
:1059E000E3492868884204D045F6C450208000204E
:1059F000D9E700BF00BFFAF72DFF824600BFFAF7D4
:105A000024FD00BF05F10807388968B900BFFAF71F
:105A1000FDFC00BF5046FAF721FF00BF00BF46F271
:105A2000AB1020800020BEE700BFD2480078401CA9
:105A3000D049087008460078012801D1FDF79DF88B
:105A400000BFFAF7E3FC00BF5046FAF707FF00BFBC
:105A500000BF00BF4FF0000805F0CEF883460FE00E
:105A60003868D0F808905A4649462846FDF7DEFBCC
:105A700008F101001FFA80F8B6F5807F00D002E03F
:105A800038890028ECDC00BF00BF00BF00BFFAF778
:105A9000E1FE824600BFFAF7D8FC00BFB5480078A7
:105AA000401EB44908700846007808B9FDF7A7F809
:105AB00000BFFAF7ABFC00BF5046FAF7CFFE00BFBD
:105AC00000BF00BF06F4004008B9FDF713F800203E
:105AD0002080404667E72DE9F84F04468846154682
